{
  "contractName": "Marketplace",
  "abi": [
    {
      "anonymous": false,
      "inputs": [
        {
          "indexed": false,
          "internalType": "address",
          "name": "user",
          "type": "address"
        },
        {
          "indexed": false,
          "internalType": "uint256",
          "name": "points",
          "type": "uint256"
        }
      ],
      "name": "PointsAdded",
      "type": "event"
    },
    {
      "anonymous": false,
      "inputs": [
        {
          "indexed": false,
          "internalType": "address",
          "name": "buyer",
          "type": "address"
        },
        {
          "indexed": false,
          "internalType": "uint256",
          "name": "productId",
          "type": "uint256"
        }
      ],
      "name": "ProductPurchased",
      "type": "event"
    },
    {
      "inputs": [
        {
          "internalType": "address",
          "name": "",
          "type": "address"
        }
      ],
      "name": "users",
      "outputs": [
        {
          "internalType": "uint256",
          "name": "points",
          "type": "uint256"
        }
      ],
      "stateMutability": "view",
      "type": "function",
      "constant": true
    },
    {
      "inputs": [
        {
          "internalType": "address",
          "name": "user",
          "type": "address"
        },
        {
          "internalType": "uint256",
          "name": "points",
          "type": "uint256"
        }
      ],
      "name": "addPoints",
      "outputs": [],
      "stateMutability": "nonpayable",
      "type": "function"
    },
    {
      "inputs": [
        {
          "internalType": "uint256",
          "name": "productId",
          "type": "uint256"
        }
      ],
      "name": "purchaseProduct",
      "outputs": [],
      "stateMutability": "nonpayable",
      "type": "function"
    }
  ],
  "bytecode": "0x608060405234801561001057600080fd5b506103dc806100206000396000f3fe608060405234801561001057600080fd5b50600436106100415760003560e01c806338e76a0314610046578063507cd30f14610062578063a87430ba1461007e575b600080fd5b610060600480360381019061005b919061022c565b6100ae565b005b61007c600480360381019061007791906101f0565b6100ea565b005b610098600480360381019061009391906101c7565b61017f565b6040516100a5919061029c565b60405180910390f35b7f621472621639c4a230476ed039dff3e99add1be6bca286f58ed565e08e781a5f33826040516100df929190610273565b60405180910390a150565b806000808473ffffffffffffffffffffffffffffffffffffffff1673ffffffffffffffffffffffffffffffffffffffff168152602001908152602001600020600001600082825461013b91906102b7565b925050819055507f0fe6fcb45adaaa54f7e3491f6a7964049817f1e437f33587e634a4629fbcf3a68282604051610173929190610273565b60405180910390a15050565b60006020528060005260406000206000915090508060000154905081565b6000813590506101ac81610378565b92915050565b6000813590506101c18161038f565b92915050565b6000602082840312156101d957600080fd5b60006101e78482850161019d565b91505092915050565b6000806040838503121561020357600080fd5b60006102118582860161019d565b9250506020610222858286016101b2565b9150509250929050565b60006020828403121561023e57600080fd5b600061024c848285016101b2565b91505092915050565b61025e8161030d565b82525050565b61026d8161033f565b82525050565b60006040820190506102886000830185610255565b6102956020830184610264565b9392505050565b60006020820190506102b16000830184610264565b92915050565b60006102c28261033f565b91506102cd8361033f565b9250827fffffffffffffffffffffffffffffffffffffffffffffffffffffffffffffffff0382111561030257610301610349565b5b828201905092915050565b60006103188261031f565b9050919050565b600073ffffffffffffffffffffffffffffffffffffffff82169050919050565b6000819050919050565b7f4e487b7100000000000000000000000000000000000000000000000000000000600052601160045260246000fd5b6103818161030d565b811461038c57600080fd5b50565b6103988161033f565b81146103a357600080fd5b5056fea26469706673582212208bedc210cad864d01e043a3ce3aeec60f45df59d9288d5aafea346c79406171064736f6c63430008000033",
  "immutableReferences": {},
  "source": "// SPDX-License-Identifier: MIT\r\npragma solidity ^0.8.0;\r\n\r\ncontract Marketplace {\r\n    struct User {\r\n        uint points;\r\n    }\r\n\r\n    mapping(address => User) public users;\r\n\r\n    event PointsAdded(address user, uint points);\r\n    event ProductPurchased(address buyer, uint productId);\r\n\r\n    // Function to add points to a user\r\n    function addPoints(address user, uint points) public {\r\n        users[user].points += points;\r\n        emit PointsAdded(user, points);\r\n    }\r\n\r\n    // Function to purchase a product\r\n    function purchaseProduct(uint productId) public {\r\n        // require(users[msg.sender].points >= priceInPoints, \"Not enough points\");\r\n\r\n        // Deduct the points\r\n        // users[msg.sender].points -= priceInPoints;\r\n        emit ProductPurchased(msg.sender, productId);\r\n    }\r\n}\r\n",
  "sourcePath": "C:\\Users\\Vihit\\Documents\\Personal Projects\\EcoVoyage\\backend\\blockchain\\contracts\\Marketplace.sol",
  "compiler": {
    "name": "solc",
    "version": "0.8.0+commit.c7dfd78e.Emscripten.clang"
  },
  "schemaVersion": "3.4.16",
  "updatedAt": "2025-01-23T13:28:48.739Z",
  "networkType": "ethereum",
  "devdoc": {
    "kind": "dev",
    "methods": {},
    "version": 1
  },
  "userdoc": {
    "kind": "user",
    "methods": {},
    "version": 1
  }
}